{
  "contractName": "CoolCats",
  "abi": [
    {
      "inputs": [
        {
          "internalType": "string",
          "name": "baseURI",
          "type": "string"
        }
      ],
      "stateMutability": "nonpayable",
      "type": "constructor"
    },
    {
      "anonymous": false,
      "inputs": [
        {
          "indexed": true,
          "internalType": "address",
          "name": "owner",
          "type": "address"
        },
        {
          "indexed": true,
          "internalType": "address",
          "name": "approved",
          "type": "address"
        },
        {
          "indexed": true,
          "internalType": "uint256",
          "name": "tokenId",
          "type": "uint256"
        }
      ],
      "name": "Approval",
      "type": "event"
    },
    {
      "anonymous": false,
      "inputs": [
        {
          "indexed": true,
          "internalType": "address",
          "name": "owner",
          "type": "address"
        },
        {
          "indexed": true,
          "internalType": "address",
          "name": "operator",
          "type": "address"
        },
        {
          "indexed": false,
          "internalType": "bool",
          "name": "approved",
          "type": "bool"
        }
      ],
      "name": "ApprovalForAll",
      "type": "event"
    },
    {
      "anonymous": false,
      "inputs": [
        {
          "indexed": true,
          "internalType": "address",
          "name": "previousOwner",
          "type": "address"
        },
        {
          "indexed": true,
          "internalType": "address",
          "name": "newOwner",
          "type": "address"
        }
      ],
      "name": "OwnershipTransferred",
      "type": "event"
    },
    {
      "anonymous": false,
      "inputs": [
        {
          "indexed": true,
          "internalType": "address",
          "name": "from",
          "type": "address"
        },
        {
          "indexed": true,
          "internalType": "address",
          "name": "to",
          "type": "address"
        },
        {
          "indexed": true,
          "internalType": "uint256",
          "name": "tokenId",
          "type": "uint256"
        }
      ],
      "name": "Transfer",
      "type": "event"
    },
    {
      "inputs": [],
      "name": "_paused",
      "outputs": [
        {
          "internalType": "bool",
          "name": "",
          "type": "bool"
        }
      ],
      "stateMutability": "view",
      "type": "function",
      "constant": true
    },
    {
      "inputs": [
        {
          "internalType": "address",
          "name": "to",
          "type": "address"
        },
        {
          "internalType": "uint256",
          "name": "tokenId",
          "type": "uint256"
        }
      ],
      "name": "approve",
      "outputs": [],
      "stateMutability": "nonpayable",
      "type": "function"
    },
    {
      "inputs": [
        {
          "internalType": "address",
          "name": "owner",
          "type": "address"
        }
      ],
      "name": "balanceOf",
      "outputs": [
        {
          "internalType": "uint256",
          "name": "",
          "type": "uint256"
        }
      ],
      "stateMutability": "view",
      "type": "function",
      "constant": true
    },
    {
      "inputs": [
        {
          "internalType": "uint256",
          "name": "tokenId",
          "type": "uint256"
        }
      ],
      "name": "getApproved",
      "outputs": [
        {
          "internalType": "address",
          "name": "",
          "type": "address"
        }
      ],
      "stateMutability": "view",
      "type": "function",
      "constant": true
    },
    {
      "inputs": [
        {
          "internalType": "address",
          "name": "owner",
          "type": "address"
        },
        {
          "internalType": "address",
          "name": "operator",
          "type": "address"
        }
      ],
      "name": "isApprovedForAll",
      "outputs": [
        {
          "internalType": "bool",
          "name": "",
          "type": "bool"
        }
      ],
      "stateMutability": "view",
      "type": "function",
      "constant": true
    },
    {
      "inputs": [],
      "name": "name",
      "outputs": [
        {
          "internalType": "string",
          "name": "",
          "type": "string"
        }
      ],
      "stateMutability": "view",
      "type": "function",
      "constant": true
    },
    {
      "inputs": [],
      "name": "owner",
      "outputs": [
        {
          "internalType": "address",
          "name": "",
          "type": "address"
        }
      ],
      "stateMutability": "view",
      "type": "function",
      "constant": true
    },
    {
      "inputs": [
        {
          "internalType": "uint256",
          "name": "tokenId",
          "type": "uint256"
        }
      ],
      "name": "ownerOf",
      "outputs": [
        {
          "internalType": "address",
          "name": "",
          "type": "address"
        }
      ],
      "stateMutability": "view",
      "type": "function",
      "constant": true
    },
    {
      "inputs": [],
      "name": "renounceOwnership",
      "outputs": [],
      "stateMutability": "nonpayable",
      "type": "function"
    },
    {
      "inputs": [
        {
          "internalType": "address",
          "name": "from",
          "type": "address"
        },
        {
          "internalType": "address",
          "name": "to",
          "type": "address"
        },
        {
          "internalType": "uint256",
          "name": "tokenId",
          "type": "uint256"
        }
      ],
      "name": "safeTransferFrom",
      "outputs": [],
      "stateMutability": "nonpayable",
      "type": "function"
    },
    {
      "inputs": [
        {
          "internalType": "address",
          "name": "from",
          "type": "address"
        },
        {
          "internalType": "address",
          "name": "to",
          "type": "address"
        },
        {
          "internalType": "uint256",
          "name": "tokenId",
          "type": "uint256"
        },
        {
          "internalType": "bytes",
          "name": "_data",
          "type": "bytes"
        }
      ],
      "name": "safeTransferFrom",
      "outputs": [],
      "stateMutability": "nonpayable",
      "type": "function"
    },
    {
      "inputs": [
        {
          "internalType": "address",
          "name": "operator",
          "type": "address"
        },
        {
          "internalType": "bool",
          "name": "approved",
          "type": "bool"
        }
      ],
      "name": "setApprovalForAll",
      "outputs": [],
      "stateMutability": "nonpayable",
      "type": "function"
    },
    {
      "inputs": [
        {
          "internalType": "bytes4",
          "name": "interfaceId",
          "type": "bytes4"
        }
      ],
      "name": "supportsInterface",
      "outputs": [
        {
          "internalType": "bool",
          "name": "",
          "type": "bool"
        }
      ],
      "stateMutability": "view",
      "type": "function",
      "constant": true
    },
    {
      "inputs": [],
      "name": "symbol",
      "outputs": [
        {
          "internalType": "string",
          "name": "",
          "type": "string"
        }
      ],
      "stateMutability": "view",
      "type": "function",
      "constant": true
    },
    {
      "inputs": [
        {
          "internalType": "uint256",
          "name": "index",
          "type": "uint256"
        }
      ],
      "name": "tokenByIndex",
      "outputs": [
        {
          "internalType": "uint256",
          "name": "",
          "type": "uint256"
        }
      ],
      "stateMutability": "view",
      "type": "function",
      "constant": true
    },
    {
      "inputs": [
        {
          "internalType": "address",
          "name": "owner",
          "type": "address"
        },
        {
          "internalType": "uint256",
          "name": "index",
          "type": "uint256"
        }
      ],
      "name": "tokenOfOwnerByIndex",
      "outputs": [
        {
          "internalType": "uint256",
          "name": "",
          "type": "uint256"
        }
      ],
      "stateMutability": "view",
      "type": "function",
      "constant": true
    },
    {
      "inputs": [
        {
          "internalType": "uint256",
          "name": "tokenId",
          "type": "uint256"
        }
      ],
      "name": "tokenURI",
      "outputs": [
        {
          "internalType": "string",
          "name": "",
          "type": "string"
        }
      ],
      "stateMutability": "view",
      "type": "function",
      "constant": true
    },
    {
      "inputs": [],
      "name": "totalSupply",
      "outputs": [
        {
          "internalType": "uint256",
          "name": "",
          "type": "uint256"
        }
      ],
      "stateMutability": "view",
      "type": "function",
      "constant": true
    },
    {
      "inputs": [
        {
          "internalType": "address",
          "name": "from",
          "type": "address"
        },
        {
          "internalType": "address",
          "name": "to",
          "type": "address"
        },
        {
          "internalType": "uint256",
          "name": "tokenId",
          "type": "uint256"
        }
      ],
      "name": "transferFrom",
      "outputs": [],
      "stateMutability": "nonpayable",
      "type": "function"
    },
    {
      "inputs": [
        {
          "internalType": "address",
          "name": "newOwner",
          "type": "address"
        }
      ],
      "name": "transferOwnership",
      "outputs": [],
      "stateMutability": "nonpayable",
      "type": "function"
    },
    {
      "inputs": [
        {
          "internalType": "uint256",
          "name": "num",
          "type": "uint256"
        }
      ],
      "name": "adopt",
      "outputs": [],
      "stateMutability": "payable",
      "type": "function",
      "payable": true
    },
    {
      "inputs": [
        {
          "internalType": "address",
          "name": "_owner",
          "type": "address"
        }
      ],
      "name": "walletOfOwner",
      "outputs": [
        {
          "internalType": "uint256[]",
          "name": "",
          "type": "uint256[]"
        }
      ],
      "stateMutability": "view",
      "type": "function",
      "constant": true
    },
    {
      "inputs": [
        {
          "internalType": "uint256",
          "name": "_newPrice",
          "type": "uint256"
        }
      ],
      "name": "setPrice",
      "outputs": [],
      "stateMutability": "nonpayable",
      "type": "function"
    },
    {
      "inputs": [
        {
          "internalType": "string",
          "name": "baseURI",
          "type": "string"
        }
      ],
      "name": "setBaseURI",
      "outputs": [],
      "stateMutability": "nonpayable",
      "type": "function"
    },
    {
      "inputs": [],
      "name": "getPrice",
      "outputs": [
        {
          "internalType": "uint256",
          "name": "",
          "type": "uint256"
        }
      ],
      "stateMutability": "view",
      "type": "function",
      "constant": true
    },
    {
      "inputs": [
        {
          "internalType": "address",
          "name": "_to",
          "type": "address"
        },
        {
          "internalType": "uint256",
          "name": "_amount",
          "type": "uint256"
        }
      ],
      "name": "giveAway",
      "outputs": [],
      "stateMutability": "nonpayable",
      "type": "function"
    },
    {
      "inputs": [
        {
          "internalType": "bool",
          "name": "val",
          "type": "bool"
        }
      ],
      "name": "pause",
      "outputs": [],
      "stateMutability": "nonpayable",
      "type": "function"
    },
    {
      "inputs": [],
      "name": "withdrawAll",
      "outputs": [],
      "stateMutability": "payable",
      "type": "function",
      "payable": true
    }
  ],
  "bytecode": "0x60806040526064600c5566d529ae9e860000600d556001600e60006101000a81548160ff02191690831515021790555073fc86a64a8de22cf25410f7601acbd8d6630da93d600e60016101000a81548173ffffffffffffffffffffffffffffffffffffffff021916908373ffffffffffffffffffffffffffffffffffffffff160217905550734265de963cdd60629d03fee2cd3285e6d5ff6015600f60006101000a81548173ffffffffffffffffffffffffffffffffffffffff021916908373ffffffffffffffffffffffffffffffffffffffff160217905550731b33eba79c4dd7243e5a3456fc497b930db054b2601060006101000a81548173ffffffffffffffffffffffffffffffffffffffff021916908373ffffffffffffffffffffffffffffffffffffffff1602179055507392d79ccace3fc606845f3a66c9aed75d8e5487a9601160006101000a81548173ffffffffffffffffffffffffffffffffffffffff021916908373ffffffffffffffffffffffffffffffffffffffff1602179055503480156200019057600080fd5b5060405162005d9838038062005d988339818101604052810190620001b6919062001089565b6040518060400160405280600981526020017f436f6f6c204361747300000000000000000000000000000000000000000000008152506040518060400160405280600481526020017f434f4f4c00000000000000000000000000000000000000000000000000000000815250816000908162000233919062001325565b50806001908162000245919062001325565b505050620002686200025c6200035460201b60201c565b6200035c60201b60201c565b62000279816200042260201b60201c565b620002ae600e60019054906101000a900473ffffffffffffffffffffffffffffffffffffffff166000620004c660201b60201c565b620002e3600f60009054906101000a900473ffffffffffffffffffffffffffffffffffffffff166001620004c660201b60201c565b62000318601060009054906101000a900473ffffffffffffffffffffffffffffffffffffffff166002620004c660201b60201c565b6200034d601160009054906101000a900473ffffffffffffffffffffffffffffffffffffffff166003620004c660201b60201c565b506200195e565b600033905090565b6000600a60009054906101000a900473ffffffffffffffffffffffffffffffffffffffff16905081600a60006101000a81548173ffffffffffffffffffffffffffffffffffffffff021916908373ffffffffffffffffffffffffffffffffffffffff1602179055508173ffffffffffffffffffffffffffffffffffffffff168173ffffffffffffffffffffffffffffffffffffffff167f8be0079c531659141344cd1fd0a4f28419497f9722a3daafe3b4186f6b6457e060405160405180910390a35050565b620004326200035460201b60201c565b73ffffffffffffffffffffffffffffffffffffffff1662000458620004ec60201b60201c565b73ffffffffffffffffffffffffffffffffffffffff1614620004b1576040517f08c379a0000000000000000000000000000000000000000000000000000000008152600401620004a8906200146d565b60405180910390fd5b80600b9081620004c2919062001325565b5050565b620004e88282604051806020016040528060008152506200051660201b60201c565b5050565b6000600a60009054906101000a900473ffffffffffffffffffffffffffffffffffffffff16905090565b6200052883836200058460201b60201c565b6200053d60008484846200077d60201b60201c565b6200057f576040517f08c379a0000000000000000000000000000000000000000000000000000000008152600401620005769062001505565b60405180910390fd5b505050565b600073ffffffffffffffffffffffffffffffffffffffff168273ffffffffffffffffffffffffffffffffffffffff1603620005f6576040517f08c379a0000000000000000000000000000000000000000000000000000000008152600401620005ed9062001577565b60405180910390fd5b62000607816200092660201b60201c565b156200064a576040517f08c379a00000000000000000000000000000000000000000000000000000000081526004016200064190620015e9565b60405180910390fd5b6200065e600083836200099260201b60201c565b6001600360008473ffffffffffffffffffffffffffffffffffffffff1673ffffffffffffffffffffffffffffffffffffffff1681526020019081526020016000206000828254620006b091906200163a565b92505081905550816002600083815260200190815260200160002060006101000a81548173ffffffffffffffffffffffffffffffffffffffff021916908373ffffffffffffffffffffffffffffffffffffffff160217905550808273ffffffffffffffffffffffffffffffffffffffff16600073ffffffffffffffffffffffffffffffffffffffff167fddf252ad1be2c89b69c2b068fc378daa952ba7f163c4a11628f55a4df523b3ef60405160405180910390a4620007796000838362000ad760201b60201c565b5050565b6000620007ab8473ffffffffffffffffffffffffffffffffffffffff1662000adc60201b620017861760201c565b1562000919578373ffffffffffffffffffffffffffffffffffffffff1663150b7a02620007dd6200035460201b60201c565b8786866040518563ffffffff1660e01b81526004016200080194939291906200174a565b6020604051808303816000875af19250505080156200084057506040513d601f19601f820116820180604052508101906200083d9190620017fb565b60015b620008c8573d806000811462000873576040519150601f19603f3d011682016040523d82523d6000602084013e62000878565b606091505b506000815103620008c0576040517f08c379a0000000000000000000000000000000000000000000000000000000008152600401620008b79062001505565b60405180910390fd5b805181602001fd5b63150b7a0260e01b7bffffffffffffffffffffffffffffffffffffffffffffffffffffffff1916817bffffffffffffffffffffffffffffffffffffffffffffffffffffffff1916149150506200091e565b600190505b949350505050565b60008073ffffffffffffffffffffffffffffffffffffffff166002600084815260200190815260200160002060009054906101000a900473ffffffffffffffffffffffffffffffffffffffff1673ffffffffffffffffffffffffffffffffffffffff1614159050919050565b620009aa83838362000aff60201b620017a91760201c565b600073ffffffffffffffffffffffffffffffffffffffff168373ffffffffffffffffffffffffffffffffffffffff1603620009f657620009f08162000b0460201b60201c565b62000a3e565b8173ffffffffffffffffffffffffffffffffffffffff168373ffffffffffffffffffffffffffffffffffffffff161462000a3d5762000a3c838262000b4d60201b60201c565b5b5b600073ffffffffffffffffffffffffffffffffffffffff168273ffffffffffffffffffffffffffffffffffffffff160362000a8a5762000a848162000cca60201b60201c565b62000ad2565b8273ffffffffffffffffffffffffffffffffffffffff168273ffffffffffffffffffffffffffffffffffffffff161462000ad15762000ad0828262000da660201b60201c565b5b5b505050565b505050565b6000808273ffffffffffffffffffffffffffffffffffffffff163b119050919050565b505050565b6008805490506009600083815260200190815260200160002081905550600881908060018154018082558091505060019003906000526020600020016000909190919091505550565b6000600162000b678462000e3260201b62000d9f1760201c565b62000b7391906200182d565b905060006007600084815260200190815260200160002054905081811462000c59576000600660008673ffffffffffffffffffffffffffffffffffffffff1673ffffffffffffffffffffffffffffffffffffffff168152602001908152602001600020600084815260200190815260200160002054905080600660008773ffffffffffffffffffffffffffffffffffffffff1673ffffffffffffffffffffffffffffffffffffffff168152602001908152602001600020600084815260200190815260200160002081905550816007600083815260200190815260200160002081905550505b6007600084815260200190815260200160002060009055600660008573ffffffffffffffffffffffffffffffffffffffff1673ffffffffffffffffffffffffffffffffffffffff16815260200190815260200160002060008381526020019081526020016000206000905550505050565b6000600160088054905062000ce091906200182d565b905060006009600084815260200190815260200160002054905060006008838154811062000d135762000d1262001868565b5b90600052602060002001549050806008838154811062000d385762000d3762001868565b5b90600052602060002001819055508160096000838152602001908152602001600020819055506009600085815260200190815260200160002060009055600880548062000d8a5762000d8962001897565b5b6001900381819060005260206000200160009055905550505050565b600062000dbe8362000e3260201b62000d9f1760201c565b905081600660008573ffffffffffffffffffffffffffffffffffffffff1673ffffffffffffffffffffffffffffffffffffffff168152602001908152602001600020600083815260200190815260200160002081905550806007600084815260200190815260200160002081905550505050565b60008073ffffffffffffffffffffffffffffffffffffffff168273ffffffffffffffffffffffffffffffffffffffff160362000ea5576040517f08c379a000000000000000000000000000000000000000000000000000000000815260040162000e9c906200193c565b60405180910390fd5b600360008373ffffffffffffffffffffffffffffffffffffffff1673ffffffffffffffffffffffffffffffffffffffff168152602001908152602001600020549050919050565b6000604051905090565b600080fd5b600080fd5b600080fd5b600080fd5b6000601f19601f8301169050919050565b7f4e487b7100000000000000000000000000000000000000000000000000000000600052604160045260246000fd5b62000f558262000f0a565b810181811067ffffffffffffffff8211171562000f775762000f7662000f1b565b5b80604052505050565b600062000f8c62000eec565b905062000f9a828262000f4a565b919050565b600067ffffffffffffffff82111562000fbd5762000fbc62000f1b565b5b62000fc88262000f0a565b9050602081019050919050565b60005b8381101562000ff557808201518184015260208101905062000fd8565b8381111562001005576000848401525b50505050565b6000620010226200101c8462000f9f565b62000f80565b90508281526020810184848401111562001041576200104062000f05565b5b6200104e84828562000fd5565b509392505050565b600082601f8301126200106e576200106d62000f00565b5b8151620010808482602086016200100b565b91505092915050565b600060208284031215620010a257620010a162000ef6565b5b600082015167ffffffffffffffff811115620010c357620010c262000efb565b5b620010d18482850162001056565b91505092915050565b600081519050919050565b7f4e487b7100000000000000000000000000000000000000000000000000000000600052602260045260246000fd5b600060028204905060018216806200112d57607f821691505b602082108103620011435762001142620010e5565b5b50919050565b60008190508160005260206000209050919050565b60006020601f8301049050919050565b600082821b905092915050565b600060088302620011ad7fffffffffffffffffffffffffffffffffffffffffffffffffffffffffffffffff826200116e565b620011b986836200116e565b95508019841693508086168417925050509392505050565b6000819050919050565b6000819050919050565b60006200120662001200620011fa84620011d1565b620011db565b620011d1565b9050919050565b6000819050919050565b6200122283620011e5565b6200123a62001231826200120d565b8484546200117b565b825550505050565b600090565b6200125162001242565b6200125e81848462001217565b505050565b5b8181101562001286576200127a60008262001247565b60018101905062001264565b5050565b601f821115620012d5576200129f8162001149565b620012aa846200115e565b81016020851015620012ba578190505b620012d2620012c9856200115e565b83018262001263565b50505b505050565b600082821c905092915050565b6000620012fa60001984600802620012da565b1980831691505092915050565b6000620013158383620012e7565b9150826002028217905092915050565b6200133082620010da565b67ffffffffffffffff8111156200134c576200134b62000f1b565b5b62001358825462001114565b620013658282856200128a565b600060209050601f8311600181146200139d576000841562001388578287015190505b62001394858262001307565b86555062001404565b601f198416620013ad8662001149565b60005b82811015620013d757848901518255600182019150602085019450602081019050620013b0565b86831015620013f75784890151620013f3601f891682620012e7565b8355505b6001600288020188555050505b505050505050565b600082825260208201905092915050565b7f4f776e61626c653a2063616c6c6572206973206e6f7420746865206f776e6572600082015250565b6000620014556020836200140c565b915062001462826200141d565b602082019050919050565b60006020820190508181036000830152620014888162001446565b9050919050565b7f4552433732313a207472616e7366657220746f206e6f6e20455243373231526560008201527f63656976657220696d706c656d656e7465720000000000000000000000000000602082015250565b6000620014ed6032836200140c565b9150620014fa826200148f565b604082019050919050565b600060208201905081810360008301526200152081620014de565b9050919050565b7f4552433732313a206d696e7420746f20746865207a65726f2061646472657373600082015250565b60006200155f6020836200140c565b91506200156c8262001527565b602082019050919050565b60006020820190508181036000830152620015928162001550565b9050919050565b7f4552433732313a20746f6b656e20616c7265616479206d696e74656400000000600082015250565b6000620015d1601c836200140c565b9150620015de8262001599565b602082019050919050565b600060208201905081810360008301526200160481620015c2565b9050919050565b7f4e487b7100000000000000000000000000000000000000000000000000000000600052601160045260246000fd5b60006200164782620011d1565b91506200165483620011d1565b9250827fffffffffffffffffffffffffffffffffffffffffffffffffffffffffffffffff038211156200168c576200168b6200160b565b5b828201905092915050565b600073ffffffffffffffffffffffffffffffffffffffff82169050919050565b6000620016c48262001697565b9050919050565b620016d681620016b7565b82525050565b620016e781620011d1565b82525050565b600081519050919050565b600082825260208201905092915050565b60006200171682620016ed565b620017228185620016f8565b93506200173481856020860162000fd5565b6200173f8162000f0a565b840191505092915050565b6000608082019050620017616000830187620016cb565b620017706020830186620016cb565b6200177f6040830185620016dc565b818103606083015262001793818462001709565b905095945050505050565b60007fffffffff0000000000000000000000000000000000000000000000000000000082169050919050565b620017d5816200179e565b8114620017e157600080fd5b50565b600081519050620017f581620017ca565b92915050565b60006020828403121562001814576200181362000ef6565b5b60006200182484828501620017e4565b91505092915050565b60006200183a82620011d1565b91506200184783620011d1565b9250828210156200185d576200185c6200160b565b5b828203905092915050565b7f4e487b7100000000000000000000000000000000000000000000000000000000600052603260045260246000fd5b7f4e487b7100000000000000000000000000000000000000000000000000000000600052603160045260246000fd5b7f4552433732313a2062616c616e636520717565727920666f7220746865207a6560008201527f726f206164647265737300000000000000000000000000000000000000000000602082015250565b600062001924602a836200140c565b91506200193182620018c6565b604082019050919050565b60006020820190508181036000830152620019578162001915565b9050919050565b61442a806200196e6000396000f3fe6080604052600436106101b75760003560e01c806370a08231116100ec57806398d5fdca1161008a578063c87b56dd11610064578063c87b56dd146105ee578063ca8001441461062b578063e985e9c514610654578063f2fde38b14610691576101b7565b806398d5fdca14610571578063a22cb4651461059c578063b88d4fde146105c5576101b7565b80638588b2c5116100c65780638588b2c5146104d65780638da5cb5b146104f257806391b7f5ed1461051d57806395d89b4114610546576101b7565b806370a0823114610478578063715018a6146104b5578063853828b6146104cc576101b7565b806323b872dd11610159578063438b630011610133578063438b6300146103985780634f6ccce7146103d557806355f804b3146104125780636352211e1461043b576101b7565b806323b872dd146103095780632f745c591461033257806342842e0e1461036f576101b7565b8063081812fc11610195578063081812fc1461024d578063095ea7b31461028a57806316c61ccc146102b357806318160ddd146102de576101b7565b806301ffc9a7146101bc57806302329a29146101f957806306fdde0314610222575b600080fd5b3480156101c857600080fd5b506101e360048036038101906101de9190612a4d565b6106ba565b6040516101f09190612a95565b60405180910390f35b34801561020557600080fd5b50610220600480360381019061021b9190612adc565b610734565b005b34801561022e57600080fd5b506102376107cd565b6040516102449190612ba2565b60405180910390f35b34801561025957600080fd5b50610274600480360381019061026f9190612bfa565b61085f565b6040516102819190612c68565b60405180910390f35b34801561029657600080fd5b506102b160048036038101906102ac9190612caf565b6108e4565b005b3480156102bf57600080fd5b506102c86109fb565b6040516102d59190612a95565b60405180910390f35b3480156102ea57600080fd5b506102f3610a0e565b6040516103009190612cfe565b60405180910390f35b34801561031557600080fd5b50610330600480360381019061032b9190612d19565b610a1b565b005b34801561033e57600080fd5b5061035960048036038101906103549190612caf565b610a7b565b6040516103669190612cfe565b60405180910390f35b34801561037b57600080fd5b5061039660048036038101906103919190612d19565b610b20565b005b3480156103a457600080fd5b506103bf60048036038101906103ba9190612d6c565b610b40565b6040516103cc9190612e57565b60405180910390f35b3480156103e157600080fd5b506103fc60048036038101906103f79190612bfa565b610bee565b6040516104099190612cfe565b60405180910390f35b34801561041e57600080fd5b5061043960048036038101906104349190612fae565b610c5f565b005b34801561044757600080fd5b50610462600480360381019061045d9190612bfa565b610cee565b60405161046f9190612c68565b60405180910390f35b34801561048457600080fd5b5061049f600480360381019061049a9190612d6c565b610d9f565b6040516104ac9190612cfe565b60405180910390f35b3480156104c157600080fd5b506104ca610e56565b005b6104d4610ede565b005b6104f060048036038101906104eb9190612bfa565b6110ee565b005b3480156104fe57600080fd5b50610507611271565b6040516105149190612c68565b60405180910390f35b34801561052957600080fd5b50610544600480360381019061053f9190612bfa565b61129b565b005b34801561055257600080fd5b5061055b611321565b6040516105689190612ba2565b60405180910390f35b34801561057d57600080fd5b506105866113b3565b6040516105939190612cfe565b60405180910390f35b3480156105a857600080fd5b506105c360048036038101906105be9190612ff7565b6113bd565b005b3480156105d157600080fd5b506105ec60048036038101906105e791906130d8565b6113d3565b005b3480156105fa57600080fd5b5061061560048036038101906106109190612bfa565b611435565b6040516106229190612ba2565b60405180910390f35b34801561063757600080fd5b50610652600480360381019061064d9190612caf565b6114dc565b005b34801561066057600080fd5b5061067b6004803603810190610676919061315b565b6115fb565b6040516106889190612a95565b60405180910390f35b34801561069d57600080fd5b506106b860048036038101906106b39190612d6c565b61168f565b005b60007f780e9d63000000000000000000000000000000000000000000000000000000007bffffffffffffffffffffffffffffffffffffffffffffffffffffffff1916827bffffffffffffffffffffffffffffffffffffffffffffffffffffffff1916148061072d575061072c826117ae565b5b9050919050565b61073c611890565b73ffffffffffffffffffffffffffffffffffffffff1661075a611271565b73ffffffffffffffffffffffffffffffffffffffff16146107b0576040517f08c379a00000000000000000000000000000000000000000000000000000000081526004016107a7906131e7565b60405180910390fd5b80600e60006101000a81548160ff02191690831515021790555050565b6060600080546107dc90613236565b80601f016020809104026020016040519081016040528092919081815260200182805461080890613236565b80156108555780601f1061082a57610100808354040283529160200191610855565b820191906000526020600020905b81548152906001019060200180831161083857829003601f168201915b5050505050905090565b600061086a82611898565b6108a9576040517f08c379a00000000000000000000000000000000000000000000000000000000081526004016108a0906132d9565b60405180910390fd5b6004600083815260200190815260200160002060009054906101000a900473ffffffffffffffffffffffffffffffffffffffff169050919050565b60006108ef82610cee565b90508073ffffffffffffffffffffffffffffffffffffffff168373ffffffffffffffffffffffffffffffffffffffff160361095f576040517f08c379a00000000000000000000000000000000000000000000000000000000081526004016109569061336b565b60405180910390fd5b8073ffffffffffffffffffffffffffffffffffffffff1661097e611890565b73ffffffffffffffffffffffffffffffffffffffff1614806109ad57506109ac816109a7611890565b6115fb565b5b6109ec576040517f08c379a00000000000000000000000000000000000000000000000000000000081526004016109e3906133fd565b60405180910390fd5b6109f68383611904565b505050565b600e60009054906101000a900460ff1681565b6000600880549050905090565b610a2c610a26611890565b826119bd565b610a6b576040517f08c379a0000000000000000000000000000000000000000000000000000000008152600401610a629061348f565b60405180910390fd5b610a76838383611a9b565b505050565b6000610a8683610d9f565b8210610ac7576040517f08c379a0000000000000000000000000000000000000000000000000000000008152600401610abe90613521565b60405180910390fd5b600660008473ffffffffffffffffffffffffffffffffffffffff1673ffffffffffffffffffffffffffffffffffffffff168152602001908152602001600020600083815260200190815260200160002054905092915050565b610b3b838383604051806020016040528060008152506113d3565b505050565b60606000610b4d83610d9f565b905060008167ffffffffffffffff811115610b6b57610b6a612e83565b5b604051908082528060200260200182016040528015610b995781602001602082028036833780820191505090505b50905060005b82811015610be357610bb18582610a7b565b828281518110610bc457610bc3613541565b5b6020026020010181815250508080610bdb9061359f565b915050610b9f565b508092505050919050565b6000610bf8610a0e565b8210610c39576040517f08c379a0000000000000000000000000000000000000000000000000000000008152600401610c3090613659565b60405180910390fd5b60088281548110610c4d57610c4c613541565b5b90600052602060002001549050919050565b610c67611890565b73ffffffffffffffffffffffffffffffffffffffff16610c85611271565b73ffffffffffffffffffffffffffffffffffffffff1614610cdb576040517f08c379a0000000000000000000000000000000000000000000000000000000008152600401610cd2906131e7565b60405180910390fd5b80600b9081610cea9190613825565b5050565b6000806002600084815260200190815260200160002060009054906101000a900473ffffffffffffffffffffffffffffffffffffffff169050600073ffffffffffffffffffffffffffffffffffffffff168173ffffffffffffffffffffffffffffffffffffffff1603610d96576040517f08c379a0000000000000000000000000000000000000000000000000000000008152600401610d8d90613969565b60405180910390fd5b80915050919050565b60008073ffffffffffffffffffffffffffffffffffffffff168273ffffffffffffffffffffffffffffffffffffffff1603610e0f576040517f08c379a0000000000000000000000000000000000000000000000000000000008152600401610e06906139fb565b60405180910390fd5b600360008373ffffffffffffffffffffffffffffffffffffffff1673ffffffffffffffffffffffffffffffffffffffff168152602001908152602001600020549050919050565b610e5e611890565b73ffffffffffffffffffffffffffffffffffffffff16610e7c611271565b73ffffffffffffffffffffffffffffffffffffffff1614610ed2576040517f08c379a0000000000000000000000000000000000000000000000000000000008152600401610ec9906131e7565b60405180910390fd5b610edc6000611d01565b565b610ee6611890565b73ffffffffffffffffffffffffffffffffffffffff16610f04611271565b73ffffffffffffffffffffffffffffffffffffffff1614610f5a576040517f08c379a0000000000000000000000000000000000000000000000000000000008152600401610f51906131e7565b60405180910390fd5b6000600447610f699190613a4a565b9050600e60019054906101000a900473ffffffffffffffffffffffffffffffffffffffff1673ffffffffffffffffffffffffffffffffffffffff166108fc829081150290604051600060405180830381858888f19350505050610fcb57600080fd5b600f60009054906101000a900473ffffffffffffffffffffffffffffffffffffffff1673ffffffffffffffffffffffffffffffffffffffff166108fc829081150290604051600060405180830381858888f1935050505061102b57600080fd5b601060009054906101000a900473ffffffffffffffffffffffffffffffffffffffff1673ffffffffffffffffffffffffffffffffffffffff166108fc829081150290604051600060405180830381858888f1935050505061108b57600080fd5b601160009054906101000a900473ffffffffffffffffffffffffffffffffffffffff1673ffffffffffffffffffffffffffffffffffffffff166108fc829081150290604051600060405180830381858888f193505050506110eb57600080fd5b50565b60006110f8610a0e565b9050600e60009054906101000a900460ff161561114a576040517f08c379a000000000000000000000000000000000000000000000000000000000815260040161114190613ac7565b60405180910390fd5b6015821061118d576040517f08c379a000000000000000000000000000000000000000000000000000000000815260040161118490613b59565b60405180910390fd5b600c5461271061119d9190613b79565b82826111a99190613bad565b106111e9576040517f08c379a00000000000000000000000000000000000000000000000000000000081526004016111e090613c4f565b60405180910390fd5b81600d546111f79190613c6f565b341015611239576040517f08c379a000000000000000000000000000000000000000000000000000000000815260040161123090613d15565b60405180910390fd5b60005b8281101561126c576112593382846112549190613bad565b611dc7565b80806112649061359f565b91505061123c565b505050565b6000600a60009054906101000a900473ffffffffffffffffffffffffffffffffffffffff16905090565b6112a3611890565b73ffffffffffffffffffffffffffffffffffffffff166112c1611271565b73ffffffffffffffffffffffffffffffffffffffff1614611317576040517f08c379a000000000000000000000000000000000000000000000000000000000815260040161130e906131e7565b60405180910390fd5b80600d8190555050565b60606001805461133090613236565b80601f016020809104026020016040519081016040528092919081815260200182805461135c90613236565b80156113a95780601f1061137e576101008083540402835291602001916113a9565b820191906000526020600020905b81548152906001019060200180831161138c57829003601f168201915b5050505050905090565b6000600d54905090565b6113cf6113c8611890565b8383611de5565b5050565b6113e46113de611890565b836119bd565b611423576040517f08c379a000000000000000000000000000000000000000000000000000000000815260040161141a9061348f565b60405180910390fd5b61142f84848484611f51565b50505050565b606061144082611898565b61147f576040517f08c379a000000000000000000000000000000000000000000000000000000000815260040161147690613da7565b60405180910390fd5b6000611489611fad565b905060008151116114a957604051806020016040528060008152506114d4565b806114b38461203f565b6040516020016114c4929190613e03565b6040516020818303038152906040525b915050919050565b6114e4611890565b73ffffffffffffffffffffffffffffffffffffffff16611502611271565b73ffffffffffffffffffffffffffffffffffffffff1614611558576040517f08c379a000000000000000000000000000000000000000000000000000000000815260040161154f906131e7565b60405180910390fd5b600c5481111561159d576040517f08c379a000000000000000000000000000000000000000000000000000000000815260040161159490613e73565b60405180910390fd5b60006115a7610a0e565b905060005b828110156115dc576115c98482846115c49190613bad565b611dc7565b80806115d49061359f565b9150506115ac565b5081600c60008282546115ef9190613b79565b92505081905550505050565b6000600560008473ffffffffffffffffffffffffffffffffffffffff1673ffffffffffffffffffffffffffffffffffffffff16815260200190815260200160002060008373ffffffffffffffffffffffffffffffffffffffff1673ffffffffffffffffffffffffffffffffffffffff16815260200190815260200160002060009054906101000a900460ff16905092915050565b611697611890565b73ffffffffffffffffffffffffffffffffffffffff166116b5611271565b73ffffffffffffffffffffffffffffffffffffffff161461170b576040517f08c379a0000000000000000000000000000000000000000000000000000000008152600401611702906131e7565b60405180910390fd5b600073ffffffffffffffffffffffffffffffffffffffff168173ffffffffffffffffffffffffffffffffffffffff160361177a576040517f08c379a000000000000000000000000000000000000000000000000000000000815260040161177190613f05565b60405180910390fd5b61178381611d01565b50565b6000808273ffffffffffffffffffffffffffffffffffffffff163b119050919050565b505050565b60007f80ac58cd000000000000000000000000000000000000000000000000000000007bffffffffffffffffffffffffffffffffffffffffffffffffffffffff1916827bffffffffffffffffffffffffffffffffffffffffffffffffffffffff1916148061187957507f5b5e139f000000000000000000000000000000000000000000000000000000007bffffffffffffffffffffffffffffffffffffffffffffffffffffffff1916827bffffffffffffffffffffffffffffffffffffffffffffffffffffffff1916145b8061188957506118888261219f565b5b9050919050565b600033905090565b60008073ffffffffffffffffffffffffffffffffffffffff166002600084815260200190815260200160002060009054906101000a900473ffffffffffffffffffffffffffffffffffffffff1673ffffffffffffffffffffffffffffffffffffffff1614159050919050565b816004600083815260200190815260200160002060006101000a81548173ffffffffffffffffffffffffffffffffffffffff021916908373ffffffffffffffffffffffffffffffffffffffff160217905550808273ffffffffffffffffffffffffffffffffffffffff1661197783610cee565b73ffffffffffffffffffffffffffffffffffffffff167f8c5be1e5ebec7d5bd14f71427d1e84f3dd0314c0f7b2291e5b200ac8c7c3b92560405160405180910390a45050565b60006119c882611898565b611a07576040517f08c379a00000000000000000000000000000000000000000000000000000000081526004016119fe90613f97565b60405180910390fd5b6000611a1283610cee565b90508073ffffffffffffffffffffffffffffffffffffffff168473ffffffffffffffffffffffffffffffffffffffff161480611a545750611a5381856115fb565b5b80611a9257508373ffffffffffffffffffffffffffffffffffffffff16611a7a8461085f565b73ffffffffffffffffffffffffffffffffffffffff16145b91505092915050565b8273ffffffffffffffffffffffffffffffffffffffff16611abb82610cee565b73ffffffffffffffffffffffffffffffffffffffff1614611b11576040517f08c379a0000000000000000000000000000000000000000000000000000000008152600401611b0890614029565b60405180910390fd5b600073ffffffffffffffffffffffffffffffffffffffff168273ffffffffffffffffffffffffffffffffffffffff1603611b80576040517f08c379a0000000000000000000000000000000000000000000000000000000008152600401611b77906140bb565b60405180910390fd5b611b8b838383612209565b611b96600082611904565b6001600360008573ffffffffffffffffffffffffffffffffffffffff1673ffffffffffffffffffffffffffffffffffffffff1681526020019081526020016000206000828254611be69190613b79565b925050819055506001600360008473ffffffffffffffffffffffffffffffffffffffff1673ffffffffffffffffffffffffffffffffffffffff1681526020019081526020016000206000828254611c3d9190613bad565b92505081905550816002600083815260200190815260200160002060006101000a81548173ffffffffffffffffffffffffffffffffffffffff021916908373ffffffffffffffffffffffffffffffffffffffff160217905550808273ffffffffffffffffffffffffffffffffffffffff168473ffffffffffffffffffffffffffffffffffffffff167fddf252ad1be2c89b69c2b068fc378daa952ba7f163c4a11628f55a4df523b3ef60405160405180910390a4611cfc83838361231b565b505050565b6000600a60009054906101000a900473ffffffffffffffffffffffffffffffffffffffff16905081600a60006101000a81548173ffffffffffffffffffffffffffffffffffffffff021916908373ffffffffffffffffffffffffffffffffffffffff1602179055508173ffffffffffffffffffffffffffffffffffffffff168173ffffffffffffffffffffffffffffffffffffffff167f8be0079c531659141344cd1fd0a4f28419497f9722a3daafe3b4186f6b6457e060405160405180910390a35050565b611de1828260405180602001604052806000815250612320565b5050565b8173ffffffffffffffffffffffffffffffffffffffff168373ffffffffffffffffffffffffffffffffffffffff1603611e53576040517f08c379a0000000000000000000000000000000000000000000000000000000008152600401611e4a90614127565b60405180910390fd5b80600560008573ffffffffffffffffffffffffffffffffffffffff1673ffffffffffffffffffffffffffffffffffffffff16815260200190815260200160002060008473ffffffffffffffffffffffffffffffffffffffff1673ffffffffffffffffffffffffffffffffffffffff16815260200190815260200160002060006101000a81548160ff0219169083151502179055508173ffffffffffffffffffffffffffffffffffffffff168373ffffffffffffffffffffffffffffffffffffffff167f17307eab39ab6107e8899845ad3d59bd9653f200f220920489ca2b5937696c3183604051611f449190612a95565b60405180910390a3505050565b611f5c848484611a9b565b611f688484848461237b565b611fa7576040517f08c379a0000000000000000000000000000000000000000000000000000000008152600401611f9e906141b9565b60405180910390fd5b50505050565b6060600b8054611fbc90613236565b80601f0160208091040260200160405190810160405280929190818152602001828054611fe890613236565b80156120355780601f1061200a57610100808354040283529160200191612035565b820191906000526020600020905b81548152906001019060200180831161201857829003601f168201915b5050505050905090565b606060008203612086576040518060400160405280600181526020017f3000000000000000000000000000000000000000000000000000000000000000815250905061219a565b600082905060005b600082146120b85780806120a19061359f565b915050600a826120b19190613a4a565b915061208e565b60008167ffffffffffffffff8111156120d4576120d3612e83565b5b6040519080825280601f01601f1916602001820160405280156121065781602001600182028036833780820191505090505b5090505b600085146121935760018261211f9190613b79565b9150600a8561212e91906141d9565b603061213a9190613bad565b60f81b8183815181106121505761214f613541565b5b60200101907effffffffffffffffffffffffffffffffffffffffffffffffffffffffffffff1916908160001a905350600a8561218c9190613a4a565b945061210a565b8093505050505b919050565b60007f01ffc9a7000000000000000000000000000000000000000000000000000000007bffffffffffffffffffffffffffffffffffffffffffffffffffffffff1916827bffffffffffffffffffffffffffffffffffffffffffffffffffffffff1916149050919050565b6122148383836117a9565b600073ffffffffffffffffffffffffffffffffffffffff168373ffffffffffffffffffffffffffffffffffffffff16036122565761225181612502565b612295565b8173ffffffffffffffffffffffffffffffffffffffff168373ffffffffffffffffffffffffffffffffffffffff161461229457612293838261254b565b5b5b600073ffffffffffffffffffffffffffffffffffffffff168273ffffffffffffffffffffffffffffffffffffffff16036122d7576122d2816126b8565b612316565b8273ffffffffffffffffffffffffffffffffffffffff168273ffffffffffffffffffffffffffffffffffffffff1614612315576123148282612789565b5b5b505050565b505050565b61232a8383612808565b612337600084848461237b565b612376576040517f08c379a000000000000000000000000000000000000000000000000000000000815260040161236d906141b9565b60405180910390fd5b505050565b600061239c8473ffffffffffffffffffffffffffffffffffffffff16611786565b156124f5578373ffffffffffffffffffffffffffffffffffffffff1663150b7a026123c5611890565b8786866040518563ffffffff1660e01b81526004016123e7949392919061425f565b6020604051808303816000875af192505050801561242357506040513d601f19601f8201168201806040525081019061242091906142c0565b60015b6124a5573d8060008114612453576040519150601f19603f3d011682016040523d82523d6000602084013e612458565b606091505b50600081510361249d576040517f08c379a0000000000000000000000000000000000000000000000000000000008152600401612494906141b9565b60405180910390fd5b805181602001fd5b63150b7a0260e01b7bffffffffffffffffffffffffffffffffffffffffffffffffffffffff1916817bffffffffffffffffffffffffffffffffffffffffffffffffffffffff1916149150506124fa565b600190505b949350505050565b6008805490506009600083815260200190815260200160002081905550600881908060018154018082558091505060019003906000526020600020016000909190919091505550565b6000600161255884610d9f565b6125629190613b79565b9050600060076000848152602001908152602001600020549050818114612647576000600660008673ffffffffffffffffffffffffffffffffffffffff1673ffffffffffffffffffffffffffffffffffffffff168152602001908152602001600020600084815260200190815260200160002054905080600660008773ffffffffffffffffffffffffffffffffffffffff1673ffffffffffffffffffffffffffffffffffffffff168152602001908152602001600020600084815260200190815260200160002081905550816007600083815260200190815260200160002081905550505b6007600084815260200190815260200160002060009055600660008573ffffffffffffffffffffffffffffffffffffffff1673ffffffffffffffffffffffffffffffffffffffff16815260200190815260200160002060008381526020019081526020016000206000905550505050565b600060016008805490506126cc9190613b79565b90506000600960008481526020019081526020016000205490506000600883815481106126fc576126fb613541565b5b90600052602060002001549050806008838154811061271e5761271d613541565b5b90600052602060002001819055508160096000838152602001908152602001600020819055506009600085815260200190815260200160002060009055600880548061276d5761276c6142ed565b5b6001900381819060005260206000200160009055905550505050565b600061279483610d9f565b905081600660008573ffffffffffffffffffffffffffffffffffffffff1673ffffffffffffffffffffffffffffffffffffffff168152602001908152602001600020600083815260200190815260200160002081905550806007600084815260200190815260200160002081905550505050565b600073ffffffffffffffffffffffffffffffffffffffff168273ffffffffffffffffffffffffffffffffffffffff1603612877576040517f08c379a000000000000000000000000000000000000000000000000000000000815260040161286e90614368565b60405180910390fd5b61288081611898565b156128c0576040517f08c379a00000000000000000000000000000000000000000000000000000000081526004016128b7906143d4565b60405180910390fd5b6128cc60008383612209565b6001600360008473ffffffffffffffffffffffffffffffffffffffff1673ffffffffffffffffffffffffffffffffffffffff168152602001908152602001600020600082825461291c9190613bad565b92505081905550816002600083815260200190815260200160002060006101000a81548173ffffffffffffffffffffffffffffffffffffffff021916908373ffffffffffffffffffffffffffffffffffffffff160217905550808273ffffffffffffffffffffffffffffffffffffffff16600073ffffffffffffffffffffffffffffffffffffffff167fddf252ad1be2c89b69c2b068fc378daa952ba7f163c4a11628f55a4df523b3ef60405160405180910390a46129dd6000838361231b565b5050565b6000604051905090565b600080fd5b600080fd5b60007fffffffff0000000000000000000000000000000000000000000000000000000082169050919050565b612a2a816129f5565b8114612a3557600080fd5b50565b600081359050612a4781612a21565b92915050565b600060208284031215612a6357612a626129eb565b5b6000612a7184828501612a38565b91505092915050565b60008115159050919050565b612a8f81612a7a565b82525050565b6000602082019050612aaa6000830184612a86565b92915050565b612ab981612a7a565b8114612ac457600080fd5b50565b600081359050612ad681612ab0565b92915050565b600060208284031215612af257612af16129eb565b5b6000612b0084828501612ac7565b91505092915050565b600081519050919050565b600082825260208201905092915050565b60005b83811015612b43578082015181840152602081019050612b28565b83811115612b52576000848401525b50505050565b6000601f19601f8301169050919050565b6000612b7482612b09565b612b7e8185612b14565b9350612b8e818560208601612b25565b612b9781612b58565b840191505092915050565b60006020820190508181036000830152612bbc8184612b69565b905092915050565b6000819050919050565b612bd781612bc4565b8114612be257600080fd5b50565b600081359050612bf481612bce565b92915050565b600060208284031215612c1057612c0f6129eb565b5b6000612c1e84828501612be5565b91505092915050565b600073ffffffffffffffffffffffffffffffffffffffff82169050919050565b6000612c5282612c27565b9050919050565b612c6281612c47565b82525050565b6000602082019050612c7d6000830184612c59565b92915050565b612c8c81612c47565b8114612c9757600080fd5b50565b600081359050612ca981612c83565b92915050565b60008060408385031215612cc657612cc56129eb565b5b6000612cd485828601612c9a565b9250506020612ce585828601612be5565b9150509250929050565b612cf881612bc4565b82525050565b6000602082019050612d136000830184612cef565b92915050565b600080600060608486031215612d3257612d316129eb565b5b6000612d4086828701612c9a565b9350506020612d5186828701612c9a565b9250506040612d6286828701612be5565b9150509250925092565b600060208284031215612d8257612d816129eb565b5b6000612d9084828501612c9a565b91505092915050565b600081519050919050565b600082825260208201905092915050565b6000819050602082019050919050565b612dce81612bc4565b82525050565b6000612de08383612dc5565b60208301905092915050565b6000602082019050919050565b6000612e0482612d99565b612e0e8185612da4565b9350612e1983612db5565b8060005b83811015612e4a578151612e318882612dd4565b9750612e3c83612dec565b925050600181019050612e1d565b5085935050505092915050565b60006020820190508181036000830152612e718184612df9565b905092915050565b600080fd5b600080fd5b7f4e487b7100000000000000000000000000000000000000000000000000000000600052604160045260246000fd5b612ebb82612b58565b810181811067ffffffffffffffff82111715612eda57612ed9612e83565b5b80604052505050565b6000612eed6129e1565b9050612ef98282612eb2565b919050565b600067ffffffffffffffff821115612f1957612f18612e83565b5b612f2282612b58565b9050602081019050919050565b82818337600083830152505050565b6000612f51612f4c84612efe565b612ee3565b905082815260208101848484011115612f6d57612f6c612e7e565b5b612f78848285612f2f565b509392505050565b600082601f830112612f9557612f94612e79565b5b8135612fa5848260208601612f3e565b91505092915050565b600060208284031215612fc457612fc36129eb565b5b600082013567ffffffffffffffff811115612fe257612fe16129f0565b5b612fee84828501612f80565b91505092915050565b6000806040838503121561300e5761300d6129eb565b5b600061301c85828601612c9a565b925050602061302d85828601612ac7565b9150509250929050565b600067ffffffffffffffff82111561305257613051612e83565b5b61305b82612b58565b9050602081019050919050565b600061307b61307684613037565b612ee3565b90508281526020810184848401111561309757613096612e7e565b5b6130a2848285612f2f565b509392505050565b600082601f8301126130bf576130be612e79565b5b81356130cf848260208601613068565b91505092915050565b600080600080608085870312156130f2576130f16129eb565b5b600061310087828801612c9a565b945050602061311187828801612c9a565b935050604061312287828801612be5565b925050606085013567ffffffffffffffff811115613143576131426129f0565b5b61314f878288016130aa565b91505092959194509250565b60008060408385031215613172576131716129eb565b5b600061318085828601612c9a565b925050602061319185828601612c9a565b9150509250929050565b7f4f776e61626c653a2063616c6c6572206973206e6f7420746865206f776e6572600082015250565b60006131d1602083612b14565b91506131dc8261319b565b602082019050919050565b60006020820190508181036000830152613200816131c4565b9050919050565b7f4e487b7100000000000000000000000000000000000000000000000000000000600052602260045260246000fd5b6000600282049050600182168061324e57607f821691505b60208210810361326157613260613207565b5b50919050565b7f4552433732313a20617070726f76656420717565727920666f72206e6f6e657860008201527f697374656e7420746f6b656e0000000000000000000000000000000000000000602082015250565b60006132c3602c83612b14565b91506132ce82613267565b604082019050919050565b600060208201905081810360008301526132f2816132b6565b9050919050565b7f4552433732313a20617070726f76616c20746f2063757272656e74206f776e6560008201527f7200000000000000000000000000000000000000000000000000000000000000602082015250565b6000613355602183612b14565b9150613360826132f9565b604082019050919050565b6000602082019050818103600083015261338481613348565b9050919050565b7f4552433732313a20617070726f76652063616c6c6572206973206e6f74206f7760008201527f6e6572206e6f7220617070726f76656420666f7220616c6c0000000000000000602082015250565b60006133e7603883612b14565b91506133f28261338b565b604082019050919050565b60006020820190508181036000830152613416816133da565b9050919050565b7f4552433732313a207472616e736665722063616c6c6572206973206e6f74206f60008201527f776e6572206e6f7220617070726f766564000000000000000000000000000000602082015250565b6000613479603183612b14565b91506134848261341d565b604082019050919050565b600060208201905081810360008301526134a88161346c565b9050919050565b7f455243373231456e756d657261626c653a206f776e657220696e646578206f7560008201527f74206f6620626f756e6473000000000000000000000000000000000000000000602082015250565b600061350b602b83612b14565b9150613516826134af565b604082019050919050565b6000602082019050818103600083015261353a816134fe565b9050919050565b7f4e487b7100000000000000000000000000000000000000000000000000000000600052603260045260246000fd5b7f4e487b7100000000000000000000000000000000000000000000000000000000600052601160045260246000fd5b60006135aa82612bc4565b91507fffffffffffffffffffffffffffffffffffffffffffffffffffffffffffffffff82036135dc576135db613570565b5b600182019050919050565b7f455243373231456e756d657261626c653a20676c6f62616c20696e646578206f60008201527f7574206f6620626f756e64730000000000000000000000000000000000000000602082015250565b6000613643602c83612b14565b915061364e826135e7565b604082019050919050565b6000602082019050818103600083015261367281613636565b9050919050565b60008190508160005260206000209050919050565b60006020601f8301049050919050565b600082821b905092915050565b6000600883026136db7fffffffffffffffffffffffffffffffffffffffffffffffffffffffffffffffff8261369e565b6136e5868361369e565b95508019841693508086168417925050509392505050565b6000819050919050565b600061372261371d61371884612bc4565b6136fd565b612bc4565b9050919050565b6000819050919050565b61373c83613707565b61375061374882613729565b8484546136ab565b825550505050565b600090565b613765613758565b613770818484613733565b505050565b5b818110156137945761378960008261375d565b600181019050613776565b5050565b601f8211156137d9576137aa81613679565b6137b38461368e565b810160208510156137c2578190505b6137d66137ce8561368e565b830182613775565b50505b505050565b600082821c905092915050565b60006137fc600019846008026137de565b1980831691505092915050565b600061381583836137eb565b9150826002028217905092915050565b61382e82612b09565b67ffffffffffffffff81111561384757613846612e83565b5b6138518254613236565b61385c828285613798565b600060209050601f83116001811461388f576000841561387d578287015190505b6138878582613809565b8655506138ef565b601f19841661389d86613679565b60005b828110156138c5578489015182556001820191506020850194506020810190506138a0565b868310156138e257848901516138de601f8916826137eb565b8355505b6001600288020188555050505b505050505050565b7f4552433732313a206f776e657220717565727920666f72206e6f6e657869737460008201527f656e7420746f6b656e0000000000000000000000000000000000000000000000602082015250565b6000613953602983612b14565b915061395e826138f7565b604082019050919050565b6000602082019050818103600083015261398281613946565b9050919050565b7f4552433732313a2062616c616e636520717565727920666f7220746865207a6560008201527f726f206164647265737300000000000000000000000000000000000000000000602082015250565b60006139e5602a83612b14565b91506139f082613989565b604082019050919050565b60006020820190508181036000830152613a14816139d8565b9050919050565b7f4e487b7100000000000000000000000000000000000000000000000000000000600052601260045260246000fd5b6000613a5582612bc4565b9150613a6083612bc4565b925082613a7057613a6f613a1b565b5b828204905092915050565b7f53616c6520706175736564000000000000000000000000000000000000000000600082015250565b6000613ab1600b83612b14565b9150613abc82613a7b565b602082019050919050565b60006020820190508181036000830152613ae081613aa4565b9050919050565b7f596f752063616e2061646f70742061206d6178696d756d206f6620323020436160008201527f7473000000000000000000000000000000000000000000000000000000000000602082015250565b6000613b43602283612b14565b9150613b4e82613ae7565b604082019050919050565b60006020820190508181036000830152613b7281613b36565b9050919050565b6000613b8482612bc4565b9150613b8f83612bc4565b925082821015613ba257613ba1613570565b5b828203905092915050565b6000613bb882612bc4565b9150613bc383612bc4565b9250827fffffffffffffffffffffffffffffffffffffffffffffffffffffffffffffffff03821115613bf857613bf7613570565b5b828201905092915050565b7f45786365656473206d6178696d756d204361747320737570706c790000000000600082015250565b6000613c39601b83612b14565b9150613c4482613c03565b602082019050919050565b60006020820190508181036000830152613c6881613c2c565b9050919050565b6000613c7a82612bc4565b9150613c8583612bc4565b9250817fffffffffffffffffffffffffffffffffffffffffffffffffffffffffffffffff0483118215151615613cbe57613cbd613570565b5b828202905092915050565b7f45746865722073656e74206973206e6f7420636f727265637400000000000000600082015250565b6000613cff601983612b14565b9150613d0a82613cc9565b602082019050919050565b60006020820190508181036000830152613d2e81613cf2565b9050919050565b7f4552433732314d657461646174613a2055524920717565727920666f72206e6f60008201527f6e6578697374656e7420746f6b656e0000000000000000000000000000000000602082015250565b6000613d91602f83612b14565b9150613d9c82613d35565b604082019050919050565b60006020820190508181036000830152613dc081613d84565b9050919050565b600081905092915050565b6000613ddd82612b09565b613de78185613dc7565b9350613df7818560208601612b25565b80840191505092915050565b6000613e0f8285613dd2565b9150613e1b8284613dd2565b91508190509392505050565b7f457863656564732072657365727665642043617420737570706c790000000000600082015250565b6000613e5d601b83612b14565b9150613e6882613e27565b602082019050919050565b60006020820190508181036000830152613e8c81613e50565b9050919050565b7f4f776e61626c653a206e6577206f776e657220697320746865207a65726f206160008201527f6464726573730000000000000000000000000000000000000000000000000000602082015250565b6000613eef602683612b14565b9150613efa82613e93565b604082019050919050565b60006020820190508181036000830152613f1e81613ee2565b9050919050565b7f4552433732313a206f70657261746f7220717565727920666f72206e6f6e657860008201527f697374656e7420746f6b656e0000000000000000000000000000000000000000602082015250565b6000613f81602c83612b14565b9150613f8c82613f25565b604082019050919050565b60006020820190508181036000830152613fb081613f74565b9050919050565b7f4552433732313a207472616e736665722066726f6d20696e636f72726563742060008201527f6f776e6572000000000000000000000000000000000000000000000000000000602082015250565b6000614013602583612b14565b915061401e82613fb7565b604082019050919050565b6000602082019050818103600083015261404281614006565b9050919050565b7f4552433732313a207472616e7366657220746f20746865207a65726f2061646460008201527f7265737300000000000000000000000000000000000000000000000000000000602082015250565b60006140a5602483612b14565b91506140b082614049565b604082019050919050565b600060208201905081810360008301526140d481614098565b9050919050565b7f4552433732313a20617070726f766520746f2063616c6c657200000000000000600082015250565b6000614111601983612b14565b915061411c826140db565b602082019050919050565b6000602082019050818103600083015261414081614104565b9050919050565b7f4552433732313a207472616e7366657220746f206e6f6e20455243373231526560008201527f63656976657220696d706c656d656e7465720000000000000000000000000000602082015250565b60006141a3603283612b14565b91506141ae82614147565b604082019050919050565b600060208201905081810360008301526141d281614196565b9050919050565b60006141e482612bc4565b91506141ef83612bc4565b9250826141ff576141fe613a1b565b5b828206905092915050565b600081519050919050565b600082825260208201905092915050565b60006142318261420a565b61423b8185614215565b935061424b818560208601612b25565b61425481612b58565b840191505092915050565b60006080820190506142746000830187612c59565b6142816020830186612c59565b61428e6040830185612cef565b81810360608301526142a08184614226565b905095945050505050565b6000815190506142ba81612a21565b92915050565b6000602082840312156142d6576142d56129eb565b5b60006142e4848285016142ab565b91505092915050565b7f4e487b7100000000000000000000000000000000000000000000000000000000600052603160045260246000fd5b7f4552433732313a206d696e7420746f20746865207a65726f2061646472657373600082015250565b6000614352602083612b14565b915061435d8261431c565b602082019050919050565b6000602082019050818103600083015261438181614345565b9050919050565b7f4552433732313a20746f6b656e20616c7265616479206d696e74656400000000600082015250565b60006143be601c83612b14565b91506143c982614388565b602082019050919050565b600060208201905081810360008301526143ed816143b1565b905091905056fea264697066735822122067180e1b39a5ea727cafa15fcbebc5e42d080ff422f4f3d6198e28936c40be3664736f6c634300080f0033",
  "immutableReferences": {},
  "source": "// SPDX-License-Identifier: MIT\npragma solidity ^0.8.0;\n\nimport 'openzeppelin-solidity/contracts/token/ERC721/extensions/ERC721Enumerable.sol';\nimport 'openzeppelin-solidity/contracts/access/Ownable.sol';\n\ncontract CoolCats is ERC721Enumerable, Ownable {\n\n    using Strings for uint256;\n\n    string _baseTokenURI;\n    uint256 private _reserved = 100;\n    uint256 private _price = 0.06 ether;\n    bool public _paused = true;\n\n    // withdraw addresses\n    address t1 = 0xfc86A64a8DE22CF25410F7601AcBd8d6630Da93D;\n    address t2 = 0x4265de963cdd60629d03FEE2cd3285e6d5ff6015;\n    address t3 = 0x1b33EBa79c4DD7243E5a3456fc497b930Db054b2;\n    address t4 = 0x92d79ccaCE3FC606845f3A66c9AeD75d8e5487A9;\n\n    // Cool Cats are so cool they dont need a lots of complicated code :)\n    // 9999 cats in total, cos cats have 9 lives\n    constructor(string memory baseURI) ERC721(\"Cool Cats\", \"COOL\")  {\n        setBaseURI(baseURI);\n\n        // team gets the first 4 cats\n        _safeMint( t1, 0);\n        _safeMint( t2, 1);\n        _safeMint( t3, 2);\n        _safeMint( t4, 3);\n    }\n\n    function adopt(uint256 num) public payable {\n        uint256 supply = totalSupply();\n        require( !_paused,                              \"Sale paused\" );\n        require( num < 21,                              \"You can adopt a maximum of 20 Cats\" );\n        require( supply + num < 10000 - _reserved,      \"Exceeds maximum Cats supply\" );\n        require( msg.value >= _price * num,             \"Ether sent is not correct\" );\n\n        for(uint256 i; i < num; i++){\n            _safeMint( msg.sender, supply + i );\n        }\n    }\n\n    function walletOfOwner(address _owner) public view returns(uint256[] memory) {\n        uint256 tokenCount = balanceOf(_owner);\n\n        uint256[] memory tokensId = new uint256[](tokenCount);\n        for(uint256 i; i < tokenCount; i++){\n            tokensId[i] = tokenOfOwnerByIndex(_owner, i);\n        }\n        return tokensId;\n    }\n\n    // Just in case Eth does some crazy stuff\n    function setPrice(uint256 _newPrice) public onlyOwner() {\n        _price = _newPrice;\n    }\n\n    function _baseURI() internal view virtual override returns (string memory) {\n        return _baseTokenURI;\n    }\n\n    function setBaseURI(string memory baseURI) public onlyOwner {\n        _baseTokenURI = baseURI;\n    }\n\n    function getPrice() public view returns (uint256){\n        return _price;\n    }\n\n    function giveAway(address _to, uint256 _amount) external onlyOwner() {\n        require( _amount <= _reserved, \"Exceeds reserved Cat supply\" );\n\n        uint256 supply = totalSupply();\n        for(uint256 i; i < _amount; i++){\n            _safeMint( _to, supply + i );\n        }\n\n        _reserved -= _amount;\n    }\n\n    function pause(bool val) public onlyOwner {\n        _paused = val;\n    }\n\n    function withdrawAll() public payable onlyOwner {\n        uint256 _each = address(this).balance / 4;\n        require(payable(t1).send(_each));\n        require(payable(t2).send(_each));\n        require(payable(t3).send(_each));\n        require(payable(t4).send(_each));\n    }\n}\n",
  "sourcePath": "/Users/garrettgordon/Desktop/Personal Projects/NFT/contracts/CoolCats.sol",
  "compiler": {
    "name": "solc",
    "version": "0.8.15+commit.e14f2714.Emscripten.clang"
  },
  "schemaVersion": "3.4.8",
  "updatedAt": "2022-07-11T16:34:18.417Z",
  "networkType": "ethereum",
  "devdoc": {
    "kind": "dev",
    "methods": {
      "approve(address,uint256)": {
        "details": "See {IERC721-approve}."
      },
      "balanceOf(address)": {
        "details": "See {IERC721-balanceOf}."
      },
      "getApproved(uint256)": {
        "details": "See {IERC721-getApproved}."
      },
      "isApprovedForAll(address,address)": {
        "details": "See {IERC721-isApprovedForAll}."
      },
      "name()": {
        "details": "See {IERC721Metadata-name}."
      },
      "owner()": {
        "details": "Returns the address of the current owner."
      },
      "ownerOf(uint256)": {
        "details": "See {IERC721-ownerOf}."
      },
      "renounceOwnership()": {
        "details": "Leaves the contract without owner. It will not be possible to call `onlyOwner` functions anymore. Can only be called by the current owner. NOTE: Renouncing ownership will leave the contract without an owner, thereby removing any functionality that is only available to the owner."
      },
      "safeTransferFrom(address,address,uint256)": {
        "details": "See {IERC721-safeTransferFrom}."
      },
      "safeTransferFrom(address,address,uint256,bytes)": {
        "details": "See {IERC721-safeTransferFrom}."
      },
      "setApprovalForAll(address,bool)": {
        "details": "See {IERC721-setApprovalForAll}."
      },
      "supportsInterface(bytes4)": {
        "details": "See {IERC165-supportsInterface}."
      },
      "symbol()": {
        "details": "See {IERC721Metadata-symbol}."
      },
      "tokenByIndex(uint256)": {
        "details": "See {IERC721Enumerable-tokenByIndex}."
      },
      "tokenOfOwnerByIndex(address,uint256)": {
        "details": "See {IERC721Enumerable-tokenOfOwnerByIndex}."
      },
      "tokenURI(uint256)": {
        "details": "See {IERC721Metadata-tokenURI}."
      },
      "totalSupply()": {
        "details": "See {IERC721Enumerable-totalSupply}."
      },
      "transferFrom(address,address,uint256)": {
        "details": "See {IERC721-transferFrom}."
      },
      "transferOwnership(address)": {
        "details": "Transfers ownership of the contract to a new account (`newOwner`). Can only be called by the current owner."
      }
    },
    "version": 1
  },
  "userdoc": {
    "kind": "user",
    "methods": {},
    "version": 1
  }
}